:020000040800F2
:1000000000100020CD080008432C0008432C0008F5
:10001000432C0008432C0008432C0008432C000804
:10002000432C0008432C0008432C0008432C0008F4
:10003000432C0008432C0008432C0008432C0008E4
:10004000432C0008432C0008432C0008432C0008D4
:10005000850D0008F1020008432C0008432C00081D
:10006000432C000839060008432C0008432C0008E4
:10007000432C0008432C0008432C0008432C0008A4
:10008000432C0008432C0008432C0008432C000894
:10009000432C0008432C0008432C0008432C000884
:1000A000432C0008432C0008432C0008432C000874
:1000B000432C0008432C0008432C0008432C000864
:1000C000432C0008432C0008432C0008432C000854
:1000D000432C0008432C0008432C0008432C000844
:1000E000432C0008432C0008432C0008432C000834
:1000F000432C0008432C0008432C0008432C000824
:10010000432C0008432C0008432C0008432C000813
:10011000432C0008432C0008432C0008432C000803
:10012000432C0008432C0008432C0008432C0008F3
:10013000432C0008432C0008432C0008432C0008E3
:10014000432C0008432C0008432C0008432C0008D3
:10015000432C0008432C0008432C0008432C0008C3
:10016000432C0008432C0008432C0008432C0008B3
:10017000013800D0FCE7704710B5054C237833B93F
:10018000044B13B1044800E000BF0123237010BDED
:100190008010002000000000D030000808B5034B9C
:1001A0001BB10349034800E000BF08BD0000000088
:1001B00084100020D0300008A3F5803A704700BFBB
:1001C000174B002B08BF134B9D46FFF7F5FF00218F
:1001D0008B460F461348144A121A02F0DFFD0E4BED
:1001E000002B00D098470D4B002B00D098470020E3
:1001F000002104000D000D48002802D00C4800E04A
:1002000000BF02F07BFC2000290002F09EFC02F0FF
:1002100061FC00BF000008000000000000000000BA
:100220000010002080100020C410002000000000FA
:100230000000000010B540F2FF33C340DB07044666
:1002400004D440F2FE31054802F004FD0120044BC5
:1002500000FA04F4C3F8A04010BD00BFC42D00088C
:1002600000E0035030B585B001212520114C01F08C
:100270007BF810220021684602F090FD6946204676
:1002800001F088FF0C4B0D4A25205A6101F098F8C7
:100290000625236B4543DB0704D440F2A2410848FE
:1002A00002F0D8FC2022074BE561C3F880211A60D8
:1002B00005B030BD00C0045000E00450770077075F
:1002C000122E000800E100E0034B596903F50052CB
:1002D00051610122DA60704700C00450034B596934
:1002E00003F5005251610222DA60704700C00450E9
:1002F000F8B5214B214C5A6903F500535A61204F40
:1003000023883A7801339BB29A421E4E1E4D2380B9
:1003100026D032789A421AD10820FFF78BFF0023AB
:1003200033702A7823889A4214D000F06BF932781F
:100330003B7813432A7813431CD10F4A23809369D7
:1003400023F001039361BDE8F840FFF7C7BF2A78A7
:100350009A42ECD10620FFF76DFF00232B70E4E7F3
:100360000920FFF767FF002332783B7023889A4209
:10037000D7D1D1E7F8BD00BF00C00450A4100020C1
:10038000A6100020A7100020A810002008B502F039
:10039000E6FB00F0C1F8074A536F9B07FCD400F05E
:1003A00023F8054AD36C43F00403D364BDE8084046
:1003B00000F028B900C0035000C0055010B53F231D
:1003C000C340DB07044604D44FF48961044802F0BB
:1003D00041FC0120034B00FA04F41C6710BD00BF70
:1003E000C42D000800F003502DE9F7432D4B0721E1
:1003F00018689A889B7900906846ADF804208DF8BB
:10040000063000F0C9F8DFF8AC80DFF8A490264E83
:1004100000253446404602F094FC4528EFB206F829
:10042000010B03D001350A2DF4D1F0E7042F14D0CD
:10043000022FECD12378322BE9D16378302BE6D12F
:100440000420FFF7BBFF00F0C1FB484600F058FC5A
:1004500000F036FC01F002FDD9E72278322AD6D12D
:100460006378312BD3D1114BA178DA70DA71352250
:100470001970E1781A7259703822172198729970A0
:100480005A720220FFF79AFF00F0A0FB084800F024
:1004900037FC0220FFF792FF00F012FC03B0BDE82A
:1004A000F08300BF612E0008B4100020A9100020C6
:1004B000C0C62D0000C0055010B540F2FF33C34048
:1004C000DB07044604D440F22D41054802F0C2FB8C
:1004D0000120044B00FA04F4C3F8A04010BD00BF93
:1004E000C42D000800D0035010B540F2FF33C340C4
:1004F000DB07044604D440F2FE31054802F0AAFBB3
:100500000120044B00FA04F4C3F8A04010BD00BF62
:10051000C42D000800E0035030B589B00121292026
:1005200000F022FF002304221846082101F08CFD70
:10053000002301221846092101F086FD0123124DF6
:1005400004220021184601AC01F07EFD0FCD0FC43E
:1005500095E8070084E807004FF400220B4B0C4895
:10056000C3F838274FF41022C3F83027142201A90A
:10057000C3F8202701F092FF4FF40072054BC3F837
:1005800080211A6009B030BD6C2E000800C00350F5
:1005900000C0055000E100E070B50446054E451866
:1005A000AC4200D170BD304614F8011B02F0D9FBFB
:1005B000F6E700BF00C0055038B50D460446C8B187
:1005C000012803D0022815D0032803D13F23EB4094
:1005D000DB0704D44FF48361084802F03BFB302072
:1005E000102310FB0434064BE058E84000F00100F3
:1005F000303038BD40F2FF33E9E700BFC42D0008BA
:1006000030C0035010B509210220FFF7D5FF094C77
:10061000082120710220FFF7CFFF06216071022020
:10062000FFF7CAFF0B21A0712046BDE81040FFF77D
:10063000B3BF00BFA910002038B5244B244D5A6A1F
:10064000244CD2B22B78452AE25402D001332B70CD
:1006500038BD062B2ED1FFF705FE1F4A936923F004
:1006600001039361FFF73AFE23780920312B23D150
:10067000FFF722FF63780820312B20D1FFF71CFF02
:10068000A3780620312B1DD1FFF716FFE1782279E0
:10069000637941EA020018430CD0104801701049F8
:1006A0000A70104A13700C4A936943F00103936176
:1006B000FFF70AFE0023CAE7FFF716FFDAE7FFF7A6
:1006C00013FFDDE7FFF710FFE0E700BF00C00550B4
:1006D000BE100020B410002000C00450A61000205E
:1006E000A7100020A810002010B5274C01F08EF8AC
:1006F00001F0BAFA236F23F0070343F003032367E3
:1007000002F0E6FA214B00209B6ADB015EBF4FF44A
:1007100080321F4B9A62D4F8203123F0070343F054
:100720000203C4F82031D4F8283123F0070343F042
:100730000203C4F82831D4F8403123F0030343F016
:100740000203C4F84031D4F8603123F0030343F0CE
:100750000203C4F86031D4F8403223F0030343F0BD
:100760000203C4F84032D4F8003223F0070343F008
:100770000203C4F80032D4F8083223F0070343F030
:100780000203C4F8083210BD008000500040005A37
:100790000060005A1022024BC3F8A020704700BF2F
:1007A00000D003501022024BC3F8A020704700BFB6
:1007B00000E0035070B588B03F4D01AC0FCD0FC4C1
:1007C00095E8070084E80700012401213A2000F0A1
:1007D000CBFD3A4E0121292000F0C6FD384B3046B2
:1007E00001A903938DF8124001F0C2FE2346214671
:1007F0000422022001F028FC0221224608460023A0
:1008000001F022FC234604220321022001F01CFCFB
:10081000042223461146022001F016FC294D2A4BE2
:100820004FF44870C5F834374FF00213C5F830372D
:10083000A3F58033C5F838371C23C5F8203701F0FD
:100840008DFF1420FFF7AEFF01F088FF2320FFF794
:10085000A1FF01F083FFB9213046FFF7A3FF02F0AB
:1008600076FAFFF797FF002321461A46022001F08F
:10087000EBFB002302211A46084601F0E5FB234664
:1008800000220321022001F0DFFB23460022042185
:10089000022001F0D9FB304601F0D4FD00212920CF
:1008A000C5F83417C5F83017C5F83817C5F820173C
:1008B00000F05AFD08B070BD882E000800C0055039
:1008C00000127A0000C003500200030008B500F0D7
:1008D0002DF8124B12498B4212D30020114B1249B2
:1008E0008B4218D3FFF76CFC186850F82240586808
:1008F00040F82240013298688242F5D30C33EAE78F
:100900000022F8E71C6844F8220001325C68A24229
:10091000F8D30833E4E70022F8E700BFD830000836
:10092000E4300008E4300008E430000810B54FF46B
:1009300080414FF0FF30114B114A9A60D3F8882064
:1009400042F47002C3F888200E4A91660E4901F500
:10095000005210660D4850660220C3F8D000BFF365
:100960004F8FBFF36F8F01244FF440330848C0F816
:100970008041D36004600B6110BD00BF00ED00E05A
:10098000000000080090005000800044F7FF37008E
:1009900000E100E0014B1868704700BF0410002020
:1009A000084B1B6F03F00703022B04D0032B05D069
:1009B000012B05D0FEE7044B18687047034BFBE79B
:1009C00003487047008000500410002008100020E9
:1009D000002D310108B5FFF7E3FF054B1B6FC3F393
:1009E00003330133B0FBF3F0024B186008BD00BFC6
:1009F00000800050001000200048704700B4C4047C
:100A0000014B1868704700BF08100020054B1860A4
:100A1000054B1B6F03F00703032B01D1FFF7DABF70
:100A2000704700BF08100020008000500048704749
:100A3000002D31014FF0B4439868C0F304400C28F6
:100A400022D8DFE800F009212121212107171921EF
:100A50001B1D1F000F4870479B6803F04073B3F1E4
:100A6000807F13D0B3F1007F12D00B4A002B08BF58
:100A70001046704709487047094870470948704751
:100A80000948704709487047002070470848704778
:100A900008487047405DC60000093D000024F4008E
:100AA000C0EA210180BA8C010048E801005A6202C4
:100AB00080841E0040420F00014B1868704700BF41
:100AC0000C10002010B501213A2000F04DFC01234C
:100AD00004220321002001F0B7FA002002F029F9D6
:100AE0000122314B3149C3F844244FF40022A3F5CD
:100AF00050335A66D1F8FC202C4C12F080721EBF85
:100B0000D1F8FC3023F08073C1F8FC302849D1F8CB
:100B1000803023F0030343F00203C1F880302AB190
:100B2000D4F8FC3043F08073C4F8FC304FF46070AC
:100B300000F046FCD4F8F0301E4A43F00103C4F83C
:100B4000F030D4F8FC3000F5D52043F08073C4F8C1
:100B5000FC30194B00F2FC401A60184B0222B0FB2B
:100B6000F3F0174B01381861C3F8F0204FF480728E
:100B7000C3F804234FF06043124A0020C3F8B02F9B
:100B8000114AC3F8802ED3F8002E42F48072C3F8C5
:100B9000002EFF2283F82020D3F8002E22F480724A
:100BA000C3F8002E10BD00BF00D0035000ED00E0E0
:100BB00000800050FF030040001000E0F8590D00D5
:100BC000000004E055CEACC50900010070B588B046
:100BD0001022012400210DEB020002F0DFF80D22AB
:100BE000002168468DF8104002F0D8F80223214613
:100BF000294C24208DF8063000F0B6FB6A4600210F
:100C0000204601F02BFB236BDB0704D440F2A2410A
:100C1000224802F01FF84FF6FF73E36100231E4CD9
:100C20001F4DADF81230204604A901F0B3FA4FF47D
:100C3000806000F0C5FBBDF812300133B0FBF3F06B
:100C40009BB2B3F5806F2860ADF8123002D2154B1D
:100C50009842E8D8002000F0B3FB2E680025124C23
:100C60002946B4FBF0F411480023E6FB0401104AC6
:100C700001F0A0FD0F4B084A18600F4B1D709369DF
:100C800023F01003936110220C4BC3F880211A60EB
:100C9000284608B070BD00BF00800450122E000826
:100CA0009C10002080841E0000B0710B20A1070062
:100CB00040420F00A0100020BF10002000E100E023
:100CC00008B510220C48C0F88020BFF34F8FBFF347
:100CD0006F8F0A4B996921F01001996103F500515A
:100CE0004A61C0F88021022200212420DA6000F04D
:100CF0003BFB002008BD00BF00E100E00080045085
:100D0000F7B500211A4B1B4C1D681B4AE5FB00413F
:100D10000023204601F04EFD4FF6E9564FF6E75707
:100D2000164C174DB04271F1000311D280B260B180
:100D300012494A6A92B24B6A9BB2ADF80630BDF8CE
:100D400006309B1A9BB29842F5D8002003B0F0BD44
:100D5000626A92B2636A9BB2ADF80430BDF80430A7
:100D60009B1A9BB2BB42F5D9401961F10001D9E74A
:100D70009C10002020A1070040420F00008004507A
:100D80001802FFFF054B5B69DB0605D51022044BFB
:100D90005A610122034B1A70704700BF0080045053
:100DA00000A00450BF100020044BD3F88420D206CA
:100DB000FBD4D3F88400C0F381107047004000508A
:100DC00038B5124B0546D3F880300C4603F00303C8
:100DD000022B0BD0032B0DD0012B0FD1FFF7E0FD21
:100DE0000E2305B1286004B1236038BDFFF722FE51
:100DF0000723F6E7FFF7CEFD0623F2E7044841F2AA
:100E0000A81101F027FF00231846EAE700800050F0
:100E1000A42E000838B51A4B0546D3F820010C461D
:100E200000F00700062821D8DFE800F028040C14A1
:100E300010181C00FFF7AEFD052305B1286004B1B2
:100E4000236038BDFFF7DCFD0323F6E7FFF7F2FD73
:100E50000723F2E7FFF7EAFD0223EEE7FFF79AFD2B
:100E60000623EAE7FFF7CCFD0423E6E7054841F255
:100E7000252101F0EFFE00231846DEE70123DCE721
:100E800000800050A42E000838B5194B0546D3F851
:100E900028310C4603F00703013B052B20D8DFE87F
:100EA00003F003131B0F0B17FFF774FD052305B1A8
:100EB000286004B1236038BDFFF76CFD0623F6E718
:100EC000FFF7B8FD0723F2E7FFF79AFD0323EEE7EC
:100ED000FFF796FD0423EAE7FFF7A8FD0223E6E704
:100EE000044841F22D0101F0B5FE00231846DEE76B
:100EF00000800050A42E0008F7B50027144B01977E
:100F0000D3F88041064604F00304022C0D4614D0A9
:100F1000032C0DD0012C14D1394601A8FFF77AFF1C
:100F200010240EB1019B336005B12C6003B0F0BDFD
:100F3000FFF780FD07240190F3E7FFF777FD0190AD
:100F4000EFE741F27A31034801F084FE3C46E8E7DE
:100F500000800050A42E000837B500230193194BE0
:100F60000546D3F820320C4603F00703042B1FD8A4
:100F7000DFE803F025030F141900002101A8FFF793
:100F800083FF12230DB1019A2A6004B1236003B0DC
:100F900030BDFFF74FFD07230190F3E701F054FE4A
:100FA0000A230190EEE7FFF787FD09230190E9E7A7
:100FB00040F6EC71044801F04DFE0023E2E7012306
:100FC000E0E700BF00800050A42E000838B5104BA9
:100FD0000546D3F840310C4603F00303022B0BD037
:100FE000032B0DD0012B0FD101F02EFE0A2305B1EA
:100FF000286004B1236038BDFFF75EFD0923F6E7E2
:1010000001F025FE0C23F2E701230020EFE700BFEB
:101010000080005037B500230193184B0546D3F8E4
:1010200060320C4603F00703013B032B1FD8DFE8B7
:1010300003F0020E1914002101A8FFF7EBFE1023A4
:101040000DB1019A2A6004B1236003B030BD0021C4
:1010500001A8FFF7BBFF1123F2E7FFF7EBFC072323
:101060000190EDE7FFF7E2FC02230190E8E741F28F
:101070009101034801F0EEFD0023E1E700800050FC
:10108000A42E000837B500230193184B0546D3F86A
:1010900094320C4603F00703013B032B1FD8DFE813
:1010A00003F0020E1914002101A8FFF7B3FE10236C
:1010B0000DB1019A2A6004B1236003B030BD002154
:1010C00001A8FFF783FF1123F2E7FFF7B3FC072323
:1010D0000190EDE7FFF7AAFC02230190E8E741F257
:1010E000C401034801F0B6FD0023E1E70080005091
:1010F000A42E000873B500240F4B0194D3F870326E
:10110000064603F00303012B0D4607D0022B11D036
:1011100041F2EF01094801F09DFD04E0214601A8DC
:10112000FFF754FF11240EB1019B336005B12C6011
:1011300002B070BD1524F6E700800050A42E000810
:1011400038B5164B0546D3F800020C4600F00700F0
:10115000042819D8DFE800F020030B0F130001F07A
:1011600073FD0A2305B1286004B1236038BDFFF781
:10117000A3FC0923F6E701F06AFD0C23F2E7FFF771
:1011800029FC0F23800AEDE7054841F2384101F0C0
:1011900061FD00231846E5E70123E3E700800050E6
:1011A000A42E000838B5164B0546D3F808020C46A5
:1011B00000F00700042819D8DFE800F020030B0F27
:1011C000130001F041FD0A2305B1286004B123603A
:1011D00038BDFFF771FC0923F6E701F038FD0C2359
:1011E000F2E7FFF7F7FB0F23800AEDE7054841F22E
:1011F000704101F02FFD00231846E5E70123E3E7E6
:1012000000800050A42E000838B5104B0546D3F8D6
:1012100040320C4603F00303022B0BD0032B0DD0FE
:10122000012B0FD101F010FD0A2305B1286004B194
:10123000236038BDFFF740FC0923F6E701F007FD06
:101240000C23F2E701230020EFE700BF00800050ED
:1012500038B5104B0546D3F860310C4603F0030354
:10126000022B0BD0032B0DD0012B0FD101F0ECFC86
:101270000A2305B1286004B1236038BDFFF71CFCC8
:101280000923F6E701F0E3FC0C23F2E70123002039
:10129000EFE700BF0080005010B5B0F5207F2ED0E2
:1012A00009D8B0F5007F24D003D868B1B0F5C07F6D
:1012B0000AD000241BE0B0F5607FFAD1124BD3F8BE
:1012C0008040C4F3011412E00F4B1C6F230B13F08A
:1012D0000E0FC4F303340AD0032C08D0072C06D019
:1012E0000F2C04D040F27521084801F0B3FC601CBB
:1012F00010BD054BD3F89040C4F30464F7E7024BEC
:101300001C6FC4F38024F2E700800050A42E000874
:1013100038B54FF48032104B04469A6600200D46D3
:10132000FFF7BAFF41F671320C4B6043DC69DA63B8
:101330005A6804F4803422F440125DB908498842A6
:101340008CBF4FF480100020104358600CB1002275
:10135000DA6338BD0349F2E7009000500000035003
:10136000005A6202002D310170B5440905460E464F
:101370000ED14FF447710F4801F06CFC05F01F05CA
:10138000AEB104F58053012000FA05F51D6070BD73
:10139000012C08D0022C08D040F22631054801F07B
:1013A00059FC0024EAE7044CE8E7044CE6E704F5BE
:1013B0000053E8E7A42E00086480005068800050C5
:1013C00030B585B0002180280446CDE9001100F039
:1013D0009F8035D85E2846D85E2844D8DFE800F0E4
:1013E0009E43434343434343434343434343434372
:1013F00043434343434343434343434343434343BD
:101400009EAA9EAAB9B9B9B9B9AAC350D97450AAAB
:10141000AAAA4343434343434343AAAAAA7CE3AA59
:1014200043434343434343434343434343B99E9E60
:101430009EDE5050E88B61BE4343434343939E007E
:10144000B0F5B06F00F08F8030D8B0F5207F71D04C
:101450000FD8B0F5C07F61D0B0F5007F61D0B0F596
:10146000807F00F0858040F27941544801F0F2FB22
:1014700051E0B0F5607F67D00DD8B0F5407FF2D174
:10148000FFF7A8FA04464FF42070FFF705FFB4FBFE
:10149000F0F040083EE0B0F5806F5AD0B0F5A06F94
:1014A000E1D100216846FFF757FD34E0B0F5106F39
:1014B00074D016D8B0F5E06F75D00AD8B0F5C06F0B
:1014C00067D0B0F5D06FCED100216846FFF738FE67
:1014D00021E0B0F5F06FC6D100216846FFF7B8FEF5
:1014E00019E0B0F5406F39D00AD8B0F5206F5FD061
:1014F000B0F5286FB7D100216846FFF7FBFD0AE081
:10150000B0F5486FAFD100216846FFF7BBFD02E0A0
:10151000FFF746FA0090009805B030BDFFF75AFA81
:10152000F8E7FFF73DFA05462046FFF7B5FEB5FBA5
:10153000F0F0EFE7FFF74EFA04464FF42070FFF7A4
:10154000ABFEB4FBF0F0E5E701A8FFF739FC019D25
:10155000EAE700216846FFF75DFCDCE7002168460A
:10156000FFF792FCD7E700216846FFF7C5FCD2E7FA
:101570004FF0E02302911B695B0705D5FFF72AFABC
:101580000290029B0093C6E703A902A8FFF71EFD85
:10159000F7E700216846FFF719FDBCE70021684620
:1015A000FFF700FEB7E700216846FFF72DFEB2E720
:1015B00000216846FFF72EFDADE700BFA42E00080E
:1015C00008B58020FFF7FCFE034B98429EBF4FF406
:1015D0008032024B1A6708BD005A620200A0005018
:1015E0001FB50023B0F5807F019300F0C38064D85D
:1015F0005D2855D84C2806D82D2847D823282BD825
:1016000040F25A51A5E04D381028F9D801A353F8FB
:1016100020F000BF6B170008011600080116000833
:10162000011600081D170008011600080116000821
:10163000F11700083B170008E1160008E71700083B
:10164000011600080116000801160008011600081E
:1016500001160008FB17000824380928D0D801A378
:1016600053F820F06B1700086B1700086B17000881
:101670006B1700086B170008011600085B170008BD
:1016800001160008FD160008A11700083D2800F00B
:1016900082803E28B4D1002001A9FFF7B5FD60E0AB
:1016A0008028ADD1574B1B6F03F00703013B032B81
:1016B0004DD8DFE803F04A47878FB0F5F06F6AD066
:1016C00021D8B0F5B06F48D00FD8B0F5607F00F0EA
:1016D000858095D3B0F5806F47D0B0F5A06F8FD1DE
:1016E000002001A9FFF738FC3BE0B0F5D06F57D0E0
:1016F000B0F5E06FCFD0B0F5C06F81D1002001A967
:10170000FFF764FC2DE0B0F5206F71D00BD8B0F579
:10171000086F4AD0B0F5106F7FF472AF002001A9B6
:10172000FFF740FD1DE0B0F5406F5CD0B0F5486FAD
:1017300063D0B0F5286F7FF463AF002001A9FFF7F5
:10174000D9FC0EE0052301930BE00223FBE740F2F6
:10175000AB412D4801F07EFA03E0002001A9FFF71C
:10176000CBFB019805B05DF804FB002001A9FFF751
:1017700051FBF6E702934FF0E0231B695B0705D5A9
:10178000FFF728F90D230393039BDCE703A902A8C5
:10179000FFF71CFCF8E7002001A9FFF759FDE0E77F
:1017A000002001A9FFF7CCFCDBE7164BD3F8003192
:1017B00003F00303022B07D0032B09D0012B0BD11D
:1017C000FFF71EF90323BEE7FFF776F90923BAE70F
:1017D00001F038FA0823B6E70123B4E7184601A957
:1017E000FFF7EEFABDE7002001A9FFF74DFBB8E7D0
:1017F000002001A9FFF70EFCB3E7002001A9FFF7C5
:1018000041FCAEE700800050A42E00084FF4801287
:10181000034B5A664FF48032024B9A62704700BF06
:10182000009000500050005A38B5036804460F2B52
:1018300004D940F646317E4801F00CFA63680F2B5C
:1018400004D940F649317A4801F004FAA3680F2B15
:1018500004D940F64C31764801F0FCF9237B0F2B7C
:1018600004D940F64F31724801F0F4F9637B0F2B35
:1018700004D940F652316E4801F0ECF9A37B3F2BBE
:1018800004D940F655316A4801F0E4F9E37B3F2B77
:1018900004D940F65831664801F0DCF92369032B7E
:1018A00004D940F65B31624801F0D4F96369032B37
:1018B00004D940F65E315E4801F0CCF9E369032BB0
:1018C00004D940F661315A4801F0C4F98020FFF78D
:1018D00087FE032800F08A804FF48012554B4FF0AA
:1018E000A0615A6645F60E03534AC2F88030534B46
:1018F00099624FF4803103F580539962936DD90357
:10190000FCD4916D11F08041FBD1D4E900031B059B
:1019100043EA0063E07B0343207B43EA0043607BB0
:1019200043EA0033A07B43EA801313619069D4E952
:1019300004531B0643EA856300F000400343A07E86
:10194000E57E0343207E43EA0043607E43EA0023B2
:101950009361E069136A00280CBF0022082223F07B
:101960000F0343EA000343EA850343EA0203324AD2
:10197000334D13623BD194F82430916A94F82000DF
:10198000DB000D4043EA401394F821102B4343EA57
:10199000011343F4803393622A4B916D33EA0101C2
:1019A000FBD14FF08071254881621369A56823F44B
:1019B000700343EA055313614FF00043836194F8C9
:1019C00022300BB9204B996294F823303BB94FF485
:1019D00080321D4B9A62184A936D5B00FCD494F8D8
:1019E00025301BB1144B194AC3F8802038BD02289A
:1019F00008D11161164891614FF408524FF47F41AC
:101A000001F042F90C4994F822308A6A94F82000D7
:101A10001B06154043EA401394F824202B4343EA65
:101A2000C20394F8232043EA02438B62D7E700BF46
:101A3000A42E0008009000500040005A0050005AA8
:101A4000C7FFFEFE030001000060005AF1A7FFFF80
:101A50003440005A014B93F9000070477410002085
:101A600010B543680446072B04D940F67C512A4838
:101A700001F0F0F8A368032B04D940F67E51264804
:101A800001F0E8F82378032B04D94FF45861224879
:101A900001F0E0F894F90130002B04DA40F68251AD
:101AA0001D4801F0D7F84FF400011C4A63785166D5
:101AB0004FF4D151022002F5B832516218494F2B30
:101AC00048604FF0010028BF4F2301F58051486066
:101AD0001169C903FCD4217843EA01235361D4E995
:101AE00001131B0143EA0123617B0B43217B43EA82
:101AF00041039360E37BA17B1B0143EA4113617CBB
:101B00000B43217C43EA41035360A37C13B16FF480
:101B1000D153536210BD00BFA42E000800900050A6
:101B200000100250014B1880704700BF7210002057
:101B3000014B1880704700BF7010002038B5B0F519
:101B4000207F77D00ED8B0F5007F61D003D890B356
:101B5000B0F5C07F2FD040F2FF21BDE838403D48AE
:101B600001F078B8B0F5607FF5D13B4A4C1ED2F851
:101B7000FC5015F080751EBFD2F8FC3023F0807346
:101B8000C2F8FC30032C04D94FF43871314801F00D
:101B900061F8324BD3F8801021F0300141EA041192
:101BA000C3F8801035B12C4AD2F8FC3043F0807372
:101BB000C2F8FC3038BD102901F1FF3404D8284B9D
:101BC00023FA01F1CB0704D440F2B621214801F0F9
:101BD00041F801F06AF801F076F84FF48031214BBA
:101BE0001E4A1967136F23F4704343EA04331367E3
:101BF000FEF7F0FE0446FFF7D7F8C0F102012046D9
:101C000001F05BF800F040F8BDE83840FFF7D8BCC1
:101C10004C1E1F2C04D940F2F3210E4801F01AF893
:101C20000E4BD3F8901021F0F85141EA0461C3F84B
:101C30009010BFE74C1E012C04D940F2F921054851
:101C400001F008F8054B196F21F4806141EA842105
:101C50001967AFE7A42E000800ED00E000800050F7
:101C6000160101000090005008B50121022000F08B
:101C70002FF801F01AF801F026F84FF48032014BEA
:101C80001A6708BD0090005008B54FF4C070FFF708
:101C900097FBBDE80840044988428CBF022101211E
:101CA0004FF42070FFF74ABF80F0FA02024A536BEC
:101CB0000342FCD1704700BF00400950034A01793C
:101CC000D36E23F030030B43D366704700400050BF
:101CD0002DE9F0410446264BD3F88420D006FBD4EE
:101CE000D3F88430C3F381139C423ED0FEF758FEF4
:101CF000012C05460BD11F4B984204D940F261716B
:101D00001D4800F0A7FF0121284600F0D6FF00F093
:101D1000F4FF4FF00072194B07465A66204600F058
:101D2000F5FF4FF48063124E621E9340DFF8488047
:101D30003367736E9A0103D4D6F884309B060AD5B4
:101D4000384600F0DEFF022C0FD12846BDE8F041F6
:101D5000002100F0B2BFD6F884309906E9D540F2F0
:101D60006F71404600F076FFE3E7BDE8F08100BF09
:101D700000400050005A6202F12E0008006000503E
:101D800007B518B90191FEF70BFE0199064B1B78B8
:101D900043B1064B984205D8012003B05DF804EB2F
:101DA000FFF796BF0220F8E7C0100020005A620239
:101DB00038B54FF00042244B244C5A664AF6CD33D6
:101DC000656C014605F00105236430BB0120FFF777
:101DD0006DFF6368DB0708D4002415B11B4B1C4A58
:101DE0001A6400F094FF204638BD1A4B586008462C
:101DF000194B226BD20705D4984201D10724ECE796
:101E00000130F6E79842E7D1F8E70132236B13F08F
:101E1000080305D08A42F8D1F0E700220E49F5E721
:101E20008A42EBD020210B4A91620121A2F5805217
:101E300051600649084A886A800603D49342DDD07F
:101E40000133F8E79342DEE700900050004009506C
:101E50003254FFFF0060095040420F00F8B54AF6C7
:101E6000E8531B4CE56EE66E236600F046FF07461E
:101E7000FFF7FAFE174A25F00305136F45F0020538
:101E800023F0070343F00103136700F021FF002054
:101E9000FFF78EFF46F0030600F036FF00F035FF37
:101EA0000D4BE566E666E566E666E566E666E566CA
:101EB000E666E5669B6A1B0604D540F2E1510748D9
:101EC00000F0C8FE3846BDE8F84000F01ABF00BF79
:101ED000004000500080005000400950F12E0008E2
:101EE00038B54FF00042164B01465A664AF6CD33DC
:101EF000144C154A656C236443780B205B0043F057
:101F00000103D363FFF7D2FE63688A7823F4F87382
:101F100043EA02136360CA784B7943EA0223A36061
:101F20000A798B7943EA022323610878FFF740FF9F
:101F3000EB0744BF054B236400F0E9FE012038BDE8
:101F40000090005000400950004000503254FFFF04
:101F500070B50F28044604D940F6FC51134800F030
:101F600079FE4FF00042124B12495D6E03F580532B
:101F70005A664AF6CD334E6C80200B64FFF796FE0E
:101F80000B6A23F00F030F2C94BF234343F00F037E
:101F90000B62F30744BF084B0B64002DA2BF4FF048
:101FA0000042064B5A6600F0B2FE70BDF12E0008EA
:101FB00000800050004009503254FFFF00A0005044
:101FC00038B50D460446B0B1012803D0022812D01E
:101FD000032803D13F23EB40DB0704D440F22D411B
:101FE000064800F037FE302001214443044B01FA3B
:101FF00005F51D5138BD40F2FF33ECE7C42D000854
:1020000040D0035038B50D460446B0B1012803D086
:10201000022812D0032803D13F23EB40DB0704D46E
:1020200040F2FE31064800F015FE30200121444305
:10203000044B01FA05F51D5138BD40F2FF33ECE7C2
:10204000C42D000840E003502DE9F0410D4617462D
:1020500098460446002835D0012803D0022831D004
:10206000032803D13F23EB40DB0704D44FF4B071C6
:102070001A4800F0EFFD37B129462046B8F1000FAD
:1020800023D0FFF79DFF0F21072D04EB440688BFE7
:10209000A5F108034FEA0616114895BFAB009B0057
:1020A00004360C3607FA03F29940304400F030FE53
:1020B00097B929462046B8F1000F09D0BDE8F04194
:1020C000FFF77EBF40F2FF33CDE7FFF79BFFDAE774
:1020D000BDE8F041FFF796BFBDE8F0813E2F000854
:1020E00030C003500B4B984211D003F58043984207
:1020F0000DD003F58043984209D003F58043984200
:1021000005D003F58043C31A584258417047012057
:10211000704700BF00800450F8B51F461A4B0E46AA
:10212000984215461ED003F5804398421CD003F513
:10213000804398421AD003F58043984218D003F5A3
:102140008043984216D01148822100F083FD4FF061
:10215000FF3006210E4C7FB101FB006004EB8000D4
:102160008564F8BD0020F4E70120F2E70220F0E7E3
:102170000320EEE70420ECE701FB00602D0204EBF6
:102180008004A564EDE700BF008004508C2F000898
:102190000081035038B505460C46FFF7A3FF18B978
:1021A000A5212D4800F056FD284600F0C3FD012270
:1021B00005F500531A632A6B12F00202FBD1237952
:1021C00061881B0243EA8143617A0B4361780029ED
:1021D00014BF402100210B43A17A002914BF8021A4
:1021E00000210B43E17A002914BF202100210B4379
:1021F000217B002914BF102100210B43617B0029A2
:1022000014BF082100210B43A17B002914BF4FF408
:10221000006100210B43A179002914BF4FF48031E4
:1022200000210B4301216B6005F580531963217870
:1022300009B90223EB6000236B62E079237A43EA59
:1022400080036079002818BF10221A43AA6009B1E0
:102250000123EB6038BD00BF8C2F00082DE9F04151
:10226000074688461446FFF73DFF18B9FB212A4868
:1022700000F0F0FCB8F1020F03D9FC21264800F071
:10228000E9FC384600F056FD012207F500531A63B9
:102290003E6B16F00206FBD1E279A379002A627A3E
:1022A00014BF4FF480110021002A14BF1022002215
:1022B000E07A07EB481543EAC0430B4313432B6610
:1022C000237A33B3237B2A6E414642EA43422A668D
:1022D000013B18BF01233846A278FFF71DFF0123F9
:1022E00007F580573B63637822781B0643EA8263D5
:1022F000E27843EA0233227943EA8223627943EAAD
:102300000223A27A002A18BF042633436B66BDE875
:10231000F0812B6E2B66E2E78C2F00082DE9F0414F
:1023200080460E461F46154622B94FF4A17131482A
:1023300000F090FC26B94FF42070FFF741F80646F4
:10234000402F2AD009D8A7B1202F1CD040F28911E4
:10235000BDE8F041274800F07DBC602FF6D1B5EB19
:10236000960F04D940F28311224800F073FC042434
:102370001DE0B5EB161F04D94FF4BA711D4800F0EB
:1023800069FC102413E0B5EBD60F04D940F27911A3
:10239000184800F05FFC082409E00624B6FBF4F3BB
:1023A000AB4204D24FF4BF71124800F053FC6C43AF
:1023B000610801EB4616B6FBF4F40F4E203CB6EB79
:1023C000C40F4FEAC40504D24FF4D071094800F09D
:1023D00041FCD8F80830354023F06003C8F80830D5
:1023E000D8F808301F43C8F80870C8F81C50BDE87A
:1023F000F08100BFDB2F0008F8FF7F0070B50646B4
:102400000C46154622B940F28E210C4800F022FC01
:1024100024B94FF42070FEF7D3FF04466D00013C51
:10242000B4FBF5F4064B250213EA042304D040F272
:10243000B321024800F00EFCF56170BDDB2F0008EF
:10244000070080FF10B5124B0446984204D040F2BA
:102450004241104800F0FEFB012104F58053596011
:1024600040F6AA6341F20502636100230A48A360B3
:10247000E365E26004F500522361E361E364906484
:102480000348A365844204BF23656365516010BDA2
:1024900000C00550DB2F0008FFFF010070B5304B76
:1024A000044698420D4604D040F2FD212D4800F02C
:1024B000D1FB2046FFF7C6FF012304F58056736069
:1024C000AB7C1BB1A36843F08043A360EB7C5BB1A2
:1024D000234B9C4202BF2A7DA3F51033C3F8C821C9
:1024E000E36D43F08003E3652A8A6B7B2046134348
:1024F000EA891343E3602B7BD5E90112FFF70EFF56
:102500006B7D1BB1A36843F48033A360AB7D1BB12B
:10251000A36843F40043A360EB7D2A7E1B071205EA
:1025200002F4E00203F0E0431343A3656B7E9A1EBE
:10253000012A4FF0020209D80B49032BC1F82027CA
:1025400009D10423F3652B78636170BD0749012B22
:10255000C1F82027F4E7042204F50053DA65F2E716
:1025600000C00550DB2F000800D0035000E00350EE
:1025700038B52D4B044698420D4604D040F26931DF
:102580002A4800F067FB2046FFF75CFF0122A97B89
:1025900004F580535A602A8AA368002914BF4FF4B7
:1025A0008061002142F0010213432A7D0B43002A7F
:1025B00014BF4FF000520022A360A3681343A3602E
:1025C000AB7C5BB1184B9C4202BFEA7CA3F5103395
:1025D000C3F8C821E36D43F08003E3652B7B2046FD
:1025E000D5E9011243F48053E360FFF707FF6B7BEB
:1025F0000BB1102363616B7D1BB1A36843F480337F
:10260000A360AB7D1BB1A36843F40043A360EB7DE3
:102610002A7E1B07120503F0E04302F4E002134395
:10262000A3652B78636138BD00C00550DB2F00081F
:1026300007B5094B18689A889B7900906846ADF8F1
:1026400004208DF80630FFF74BFC0C20FFF780FCD0
:10265000002003B05DF804FB2A30000813B5002405
:10266000064A6846536F43F00103536700948DF8A0
:102670000440FFF723FB204602B010BD004000508D
:1026800030B58BB06C46174D0FCD0FC40FCD0FC4B6
:1026900095E8030084E80300134BD3F84C211203A0
:1026A00018D4D3F85041E4B28DF81940FFF7D2F9AD
:1026B000204480F308008DF818000C48FEF7A6F9B6
:1026C0006846FFF7B1F84FF4FA70FFF731FA0020CF
:1026D0000BB030BD064B1C884FF6FF739C4208BF01
:1026E0005724E1E7343000080080E00FC0175302A0
:1026F0000001E00F30B587B0084D01AC0FCD0FC41D
:102700002B6801A8236024238DF80530FFF7A8F972
:102710006420FFF707FA002007B030BD5C300008E6
:1027200010B56FF0040250210A480B4C12F0800FD4
:10273000D3B21BBF03F00F03043BA3181B1802F115
:1027400001020CBF83F8001319764C2AEED1002049
:1027500010BD00BF00ED00E000E100E010B5044650
:10276000FEF738F94FF47A729042B0FBF2F105D2DD
:102770003621BDE810400C4800F06CBA0B4BB3FB9F
:10278000F1F30B49884201D93C21F2E702FB04F046
:10279000B0FBF3F0022806D9BDE810400323B0FBDC
:1027A000F3F0FDF7E5BC10BD7030000840420F00AB
:1027B000E7CD9A3B53B94AB9002908BF00281CBF8E
:1027C0004FF0FF314FF0FF3000F082B9ADF1080C4F
:1027D0006DE904CE00F006F8DDF804E0DDE902233F
:1027E00004B070472DE9F04F099D04460F46002BB9
:1027F00048D18A42944661D9B2FA82F343B1C3F117
:1028000020019F4002FA03FC9C4020FA01F10F4393
:102810004FEA1C411FFA8CFE220CB7FBF1F601FBBC
:10282000167706FB0EF042EA0742904208D91CEBED
:10283000020206F1FF3702D2904200F237813E4693
:10284000121AA4B2B2FBF1F001FB102200FB0EFE43
:1028500044EA0244A64508D91CEB040400F1FF3207
:1028600002D2A64500F21C81104640EA0640A4EBC5
:102870000E0400261DB1DC400023C5E900433146AB
:10288000BDE8F08F8B4209D9002D00F0FD800026B5
:10289000C5E9000130463146BDE8F08FB3FA83F652
:1028A000002E4BD18B42C0F0F280824240F2EF808A
:1028B0003046002DE3D0C5E90047E0E702B9FFDE6E
:1028C000B2FA82F3002B40F09D80891A4FEA124E33
:1028D00097B20126200CB1FBFEF20EFB121140EA6A
:1028E000014107FB02F088420FD91CEB010102F104
:1028F000FF382CBF4FF001094FF00009884203D97F
:10290000B9F1000F00F0CF804246091AA4B2B1FB22
:10291000FEF00EFB101100FB07F744EA0144A7424A
:1029200008D91CEB040400F1FF3102D2A74200F2E7
:10293000B4800846E41B40EA02409BE7C6F120074A
:10294000B34001FA06F422FA07FCF940B2404CEA1F
:10295000030C20FA07F34FEA1C491C431FFA8CFEB4
:1029600000FA06F3200CB1FBF9F809FB181140EA54
:10297000014108FB0EF088420FD91CEB010108F160
:10298000FF3A2CBF4FF0010B4FF0000B884203D9E8
:10299000BBF1000F00F08D80D046091AA4B2B1FB44
:1029A000F9F009FB101100FB0EFE44EA01418E45CF
:1029B00007D91CEB010100F1FF3401D28E457FD80D
:1029C000204640EA0840A1EB0E01A0FB02984145D9
:1029D0004C46C64602D306D14B4504D20138B9EB6A
:1029E000020468EB0C0E002D70D01A1B61EB0E0177
:1029F00022FA06F301FA07F7F14000261F43C5E962
:102A000000713CE702FA03FCC3F1200001FA03F273
:102A100021FA00F64FEA1C4E24FA00F11FFA8CF757
:102A20009C401143B6FBFEF00A0C0EFB106642EA16
:102A3000064200FB07F696420ED91CEB020200F19B
:102A4000FF382CBF4FF001094FF00009964202D920
:102A5000B9F1000F31D04046921B89B2B2FBFEF6AD
:102A60000EFB162241EA024106FB07F28A4207D911
:102A70001CEB010106F1FF3801D28A4223D84646F9
:102A8000891A46EA004625E72E462846F7E6841AC4
:102A900061EB030301201F460BE76444023849E75A
:102AA00064440238E1E6023A61442EE7023E6244A1
:102AB000C6E6A8F1020861446FE702386244CBE73A
:102AC000023861447DE7023E6144D9E72E46D6E6EE
:102AD000704700BF08B5074B044613B1002100E062
:102AE00000BF054B1868836A03B19847204600F081
:102AF00029F800BF00000000CC30000870B50D4D73
:102B000000260D4C641BA410A64209D10B4D0026D3
:102B10000B4C00F04BF9641BA410A64205D170BD0C
:102B200055F8043B01369847EEE755F8043B01366B
:102B30009847F2E7781000207810002078100020E5
:102B40007C100020FEE700BF704708B500F00EF9CA
:102B5000FDF71CFC00F017F9FFF7F6FFFAE710B5D8
:102B600001213A20FEF700FC01231A4619461846B7
:102B7000FFF76AFA0023042202210120FFF764FA1A
:102B80000422002311460120FFF75EFA00230422ED
:102B900009210220FFF758FA00230422082102200D
:102BA000FFF752FABDE8104000230422062102205C
:102BB000FFF74ABA00F024B808B5FFF7B1FD00F0FE
:102BC00033F8FFF735FDFFF795FDFFF759FDFDF7EA
:102BD0008BFDFFF743FDBDE8084000F01AB808B5CB
:102BE000FDF770FFBDE8084000F022B800F006B81D
:102BF0007047704770477047704770470F207047A5
:102C000008B50023042219460120FFF71DFA002011
:102C100008BD08B501213A20FEF7A6FBFFF7CAFF61
:102C2000BDE80840FDF7C6BD01213A20FEF79CBB78
:102C300008B5082000F00FF8BDE80840082000F0B3
:102C400016B8FEE7002070474FF4004070474FF47D
:102C50007A707047FEE74FF060420123D2F8001E01
:102C600003FA00F00843C2F8000E002070474FF04E
:102C700060410122D1F8003E02FA00F023EA00038D
:102C8000C1F8003E0020704770B5054614460E4658
:102C900000F033F8296881EA040202EA06044C4095
:102CA0002C60BDE8704000F02CB808B5FDF7A4FE1C
:102CB000BDE808400021FEF72BBB0029CCBF012155
:102CC0000021FEF725BB02214FF42070FEF736BF2E
:102CD00010B5FDF77FFE0446FEF766F8C0F102016D
:102CE0002046FFF7EAFF01210020FFF749F8FEF731
:102CF000CBFFBDE81040FEF763BCEFF3108072B667
:102D0000704700B962B670477047704770477047A8
:102D100070B5054614460E46FFF7EFFF296881EAB5
:102D2000040202EA06044C402C60BDE87040FFF744
:102D3000E8BF7047036BDA0702D503695B06F9D475
:102D4000704783691B06FCD5406AC0B2704783692F
:102D50005A06FCD5C16383699B06FCD5406AC0B2A4
:102D6000704783695B06FCD5C163704708B5FFF700
:102D700023FFFFF734FFFFF739FFFFF739FFBDE807
:102D80000840FFF736BF08B5FFF734FFFFF733FF02
:102D9000FFF732FFBDE80840FFF72FBF02440346AC
:102DA000934200D1704703F8011BF9E7F8B500BF63
:102DB000F8BC08BC9E467047F8B500BFF8BC08BC1C
:102DC0009E467047633A5C75736572735C6A656EA4
:102DD00067705C73696D706C69636974797374751D
:102DE00064696F5C73646B735C6765636B6F5F735F
:102DF000646B5F325C706C6174666F726D5C656D84
:102E00006C69625C696E635C656D5F6770696F2E8B
:102E10006800633A5C75736572735C6A656E6770AF
:102E20005C73696D706C69636974797374756469D6
:102E30006F5C73646B735C6765636B6F5F73646B0C
:102E40005F325C706C6174666F726D5C656D6C692D
:102E5000625C696E635C656D5F74696D65722E6836
:102E600000FFFF17320104450000000005000000CC
:102E70000000000000C2010000050000001000007A
:102E8000000000000000000005000000000000003D
:102E900040420F000501000000000000000000009B
:102EA00000000000433A2F55736572732F6A656EF8
:102EB00067702F53696D706C6963697479537475A9
:102EC00064696F2F53444B732F6765636B6F5F7338
:102ED000646B5F322F706C6174666F726D2F656DFD
:102EE0006C69622F7372632F656D5F636D752E63FE
:102EF00000433A2F55736572732F6A656E67702FA2
:102F000053696D706C696369747953747564696F22
:102F10002F53444B732F6765636B6F5F73646B5FF5
:102F2000322F706C6174666F726D2F656D6C6962A3
:102F30002F7372632F656D5F656D752E6300433A65
:102F40002F55736572732F6A656E67702F53696DA5
:102F5000706C696369747953747564696F2F534435
:102F60004B732F6765636B6F5F73646B5F322F709A
:102F70006C6174666F726D2F656D6C69622F737210
:102F8000632F656D5F6770696F2E6300433A2F553D
:102F9000736572732F6A656E67702F53696D706CFD
:102FA000696369747953747564696F2F53444B7303
:102FB0002F6765636B6F5F73646B5F322F706C613B
:102FC00074666F726D2F656D6C69622F7372632FFB
:102FD000656D5F74696D65722E6300433A2F55739A
:102FE0006572732F6A656E67702F53696D706C69B7
:102FF0006369747953747564696F2F53444B732FED
:103000006765636B6F5F73646B5F322F706C6174A5
:10301000666F726D2F656D6C69622F7372632F65B9
:103020006D5F75736172742E6300010310010109F5
:10303000030000000B0000000C0000000300000073
:103040000000202000000000030000003C3C3C0089
:103050000000000000000000000000000126000049
:10306000040000000000000000010000000000005B
:10307000433A2F55736572732F6A656E67702F53CD
:10308000696D706C696369747953747564696F2FC5
:1030900053444B732F6765636B6F5F73646B5F3271
:1030A0002F706C6174666F726D2F736572766963D1
:1030B000652F7564656C61792F7372632F736C5F14
:1030C0007564656C61792E630000000010100020AB
:0830D000E8D0FF7F01000000C1
:0C30D800E4300008001000202000000080
:1030E400C0EA2101C0EA2101C01753020080000098
:1030F40000000000000000000000000000000000CC
:1031040000000000000000000000000000000000BB
:1031140000000000000000000000000000000000AB
:10312400000000000000000000000000000000009B
:10313400000000000000000000000000000000008B
:10314400000000000000000000000000000000007B
:10315400FFFFFFFF280000009D010008790100081F
:04000005080008CD1A
:00000001FF
